:060000000C942B010C948E
:1000060000000C9400000C9400000C9400000C946A
:1000160000000C9400000C9400000C9400000C945A
:1000260000000C9400000C9400000C9400000C944A
:1000360000000C9400000C9400000C9400000C943A
:1000460000000C9400000C9400000C9400000507BE
:100056002060000000000000005F000000070007AD
:1000660000147F147F14242A7F2A12231308646243
:1000760036495522500005030000001C22410000AD
:1000860041221C00082A1C2A0808083E08080050BD
:10009600300000080808080800303000002010086A
:1000A60004023E5149453E00427F400042615149AB
:1000B600462141454B311814127F102745454539D5
:1000C6003C4A494930017109050336494949360612
:1000D6004949291E00363600000056360000000841
:1000E600142241141414141441221408000201515C
:1000F6000906324979413E7E1111117E7F494949EF
:10010600363E414141227F4141221C7F49494941B6
:100116007F090901013E414151327F0808087F00ED
:10012600417F41002040413F017F081422417F402A
:100136004040407F0204027F7F0408107F3E414119
:10014600413E7F090909063E4151215E7F09192971
:1001560046464949493101017F01013F4040403F40
:100166001F2040201F7F2018207F6314081463037C
:1001760004780403615149454300007F414102046C
:1001860008102041417F0000040201020440404063
:100196004040000102040020545454787F484444EF
:1001A600383844444420384444487F38545454181A
:1001B600087E090102081454543C7F0804047800A0
:1001C600447D40002040443D00007F10284400410B
:1001D6007F40007C041804787C0804047838444482
:1001E60044387C14141408081414187C7C0804047D
:1001F600084854545420043F4440203C4040207C4E
:100206001C2040201C3C4030403C44281028440C14
:100216005050503C4464544C4400083641000000A1
:100226007F0000004136080002010204027F4141BE
:10023600417F000103070F1F3F7FFF0001002D4E86
:10024600414E00494E460000010080024202000075
:10025600F894EE27ECBBF1E0FBBFEBBFE5BF8DE00A
:10026600A2E0BB27ED938A95E9F780E098E0A0E647
:10027600ED930197E9F7EEE4F2E085919591009709
:1002860061F0A591B59105901590BF01F00105901B
:100296000D920197E1F7FB01F0CFEFE5EDBFE8E046
:1002A600EEBFC0E6D2E00C94580126971BE30BE1A3
:1002B60030E0EFEFEABBE0E0EBBBEFE3E7BBE0E00B
:1002C600E8BBE4BBE5BBE1BBE2BBE4E5F0E0E88309
:1002D600F983E0E0EA83EB83EC83ED83DE01C0D0B3
:1002E6000E9459061A9313950E946406033008F477
:1002F60031E0303089F10E9459061E5F1A930E9440
:100306006C061D3708F032E0323029F50E94590696
:100316001A931A950E946C060D3308F033E03330B9
:10032600C9F40E94590612501A930E9464061230AC
:1003360008F434E0033008F431E0343051F40E941C
:1003460059061C5F1A930E946406033008F431E0D4
:10035600F4CFE5CFD9CFCDCFC3CFFFCF0000C09A22
:1003660000000895C098C498C59808951A93F6DFBA
:1003760019B3C098E12F19910895AA931A93E0E052
:10038600EABBC19AC298E981EF5F1E2F10FF02C037
:10039600C49A01C0C49811FF02C0C59A01C0C5988D
:1003A600E5DFE078E9F7188175C1AA93A981E5DF51
:1003B6000E9474066FC1E0917E02EA93E0917D028D
:1003C600EF73E064AE2FF1DFE0917E02EA93E091F5
:1003D6007F02E86BAE2FE9DF0895AA93E981E093E7
:1003E6007D02E295EF70E695E695E0937E02E88160
:1003F600E0937F02E0DF4EC1A0917D02AF5FA09344
:100406007D02A03818F0E0E0E0937D02E0917D02E5
:10041600EF7331F4E0917D02EA93A0917F02DDDF74
:100426000895AA93A0917E02A8DFC29A0E9474063C
:1004360021960895A0917E02A0DFE0E0EABBC19A72
:10044600C29A94DF0895AA93E981EA93E981E69531
:10045600E695E695AE2FC1DFEDDFADDFEBDF1AC126
:10046600BA93AA931A93B89AB99ABA9ABB9AC39AA4
:10047600BC9ABD9A77DFC398A4E6B0E00E94050750
:10048600C39A10E0123040F41A93AFE38EDF1A934A
:100496001395A0EC8ADFF6CFE1E0E0936002E0E09E
:1004A600E0936102E981FA813097A9F0A981BA81C6
:1004B6000E942507E0936402F093650212960E945B
:1004C6002507E0937902F0937A02A981BA811496FE
:1004D6000E9425070AC0E0E0F0E0E0936402F09392
:1004E6006502E0937902F0937A02E0937B02F0933F
:1004F6007C02E1E0E0936602E09367020E947D06DB
:10050600E1E0E0937002E1E7F2E0FA93EA93EFEFBD
:10051600EA93A8E0B0E00E94490603D0E1E0188122
:10052600ACC00E942F0700E030E0E0916102E030AD
:1005360009F00FEF383078F4E0E0EA93A32F3F5F3D
:100546004CDF10E0A12F1F5FA03820F4A02F69DF39
:1005560053DFF8CFEFCFE0E0EA93A0E03EDFE0E044
:10056600EA93A0E08CD00E94360724960895AA93B9
:100576001A930A93AC81A03818F4AB81A03420F00A
:10058600198108810C945706EC81EA93AC815BDFF4
:100596001E2F11DFEB81E770A1E00E9413070E2FDB
:1005A600EA81E03011F0102B03C0E02FE0951E2306
:1005B600A12F37DF198108810C945706AA93A981C8
:1005C600A03818F4A881A03410F0E0E063C0E981F7
:1005D600EA93A98138DF1E2EE881E770A1E00E9428
:1005E6001307E12111F0E1E001C0E0E053C00E94F1
:1005F60084061CF0E0E0F0E04DC0A881B981A03887
:10060600E0E0BE071CF0EFE7F0E044C0E881F981C6
:1006160041C00E9484061CF0E0E0F0E03BC0A881E7
:10062600B981A034E0E0BE071CF0EFE3F0E032C091
:10063600E881F9812FC0AA93E981EA93E981EA93D7
:10064600A091600294DF26C0AA93EA81EA93EA8128
:10065600EA93E0916902AA81EA2319F0E091600227
:1006660002C0E0916102AE2F82DFE881EE0FE883DF
:10067600E03011F4E1E0E883E88123960895AA9337
:10068600A981BB27B4DFE0936202A881BB27C1DF43
:10069600E093630222960895AA932B970E942D0752
:1006A600AC89BB27A4DFEC8BAA89BB27A0DFEA8B2A
:1006B600AB89BB27AEDFEB8BA989BB27AADFE98B0A
:1006C600EA89E0936202E989E0936302E1E0E88760
:1006D600E989AB89EA1771F51C89AA891A1731F4D9
:1006E6001A93EC89EA93A1E0AFDFC8C0AA891A176A
:1006F60030F4EA89E11B0E2F41E050E006C0AA89DA
:10070600E12FEA1B0E2F4FEF5FEF3B89E0E0EE8310
:100716000E948B0638F41A933A933395AA8594DF90
:10072600EF83F6CFEF81E887140FE02F0150E0301A
:1007360061F7A4C0EA89AC89EA1739F53B89A9892A
:100746003A1730F4E989E31B2E2FE1E0F0E006C00A
:10075600A989E32FEA1B2E2FEFEFFFEFED87FE8728
:100766001C89E0E0EE830E948B0630F41A93139501
:100776000E949306EF83F7CFEF81E887ED853E0F62
:10078600E22F2150E03061F779C0E0E0EE830E946D
:100796008B0608F073C01C893B89E1E02E2F0E2FD3
:1007A600AA89BB27EC89F0E0AE1BBF0BAD01552330
:1007B6002AF40FEFFA010E940F07AF01FA01EE0FBC
:1007C600FF1FEF87F88BA989BB27EB89F0E0AE1BEB
:1007D600BF0BAD87BE87AE85AA233AF42FEFED8512
:1007E600FE850E940F07ED87FE87ED85FE85EE0FDD
:1007F600FF1FEB87FC871A933A93A1E025DFE88772
:10080600E0E0E987EA87AD85BE854A175B07BCF05D
:10081600100FEB85FC850E949706A985BA854A17B5
:100826005B072CF4320FAF85B8890E949E061A9397
:100836000E949306E887EA89E11751F718C0320F3C
:10084600EF85F8890E949706ED85FE85A985BA850C
:10085600EA17FB072CF4100FAB85BC850E949E0699
:100866001A930E949306E887E989E31741F7EB8913
:10087600EF5FEB8BE989EF5FE98B89CF0E94340745
:1008860065960895BA93AA9323970E942D07ED853E
:10089600E887E0916802EF83E0916002EE83AA891F
:1008A600BB27EF850E94A506E8890E94AC06E88969
:1008B6000E94B30671F0E885E078F1F4AD85BE8557
:1008C600EAE5F0E00E94BB061CF00E94C4060CF4A8
:1008D60013C0332312F00E94C906AF81A23020F064
:1008E6002230E0E03E070CF407C00E94CD0621F45A
:1008F6000A93A22FA1509FDEE885E878E83891F0A8
:10090600E885E078C9F4AD85BE85A25FBE4F0E943A
:10091600D6063CF0AD85BE85A25FBE4F0E94DB06C3
:100926000CF40AC00E94E00638F00E94E70621F4A3
:100936000A93A42FAF5F7FDEAA89BB27EF85F0E07D
:10094600AE1BBF0B8D0111230AF445C0E885E27882
:10095600E23891F0E885E07811F5AD85BE85A65AB6
:10096600BF4F0E94D6063CF0AD85BE85A65ABF4F46
:100976000E94DB060CF413C0332312F00E94C90652
:10098600AF81A23020F02230E0E03E070CF407C031
:100996000E94CD0621F40A93A22FA1504CDEE885D1
:1009A600E478E43871F0E885E078A9F4AD85BE8591
:1009B600EEE0F1E00E94BB061CF00E94C4060CF4B7
:1009C6000AC00E94E00638F00E94E70621F40A9366
:1009D600A42FAF5F30DEAA89BB27E8890E94A5064F
:1009E600EF850E94AC06EF850E94B30681F0E8858C
:1009F600E078F1F4EB85FC85AD85BE85AE17BF07C3
:100A06002CF0E985FA85EA17FB070CF411C03323AD
:100A16007AF00E94C906AF81A23050F0E02FEE5F57
:100A26000E94F00629F4E02FEF5FEA93A22F03DE7F
:100A3600E885E878E83871F0E885E078C1F4AD85B6
:100A4600BE85E8E6F1E00E94BB061CF00E94C406E3
:100A56000CF40DC00E94E00650F0E02FEE5F0E94FD
:100A6600F80629F4E02FEF5FEA93A42FE4DDAA89C4
:100A7600BB27E889F0E0AE1BBF0B8D0111230AF4FA
:100A860050C0E885E278E23871F0E885E07809F54B
:100A9600AD85BE85E4EBF0E00E94BB061CF00E942B
:100AA600C4060CF416C03323A2F00E94C906AF8117
:100AB600A23020F00230E0E01E070CF40AC0E02F5E
:100AC600E2500E94F00629F4E02FE150EA93A22FAB
:100AD600B2DDE885E478E43891F0E885E07809F558
:100AE600AD85BE85AC54BF4F0E94D6063CF0AD85A1
:100AF600BE85AC54BF4F0E94DB060CF412C00E94A8
:100B0600E00620F00230E0E01E070CF40AC0E02FF9
:100B1600E2500E94F80629F4E02FE150EA93A42F50
:100B26008ADD0E94340763960895AA930E942F07D0
:100B3600AF81BB27ED81F0E0AE1BBF0B58DD1E2F4A
:100B4600AF81BB27ED81F0E0AE0FBF1F50DD0E2F4A
:100B5600AE81BB27EC81F0E0AE1BBF0B5ADD3E2F0A
:100B6600AE81BB27EC81F0E0AE0FBF1F52DD2E2F0A
:100B76001A933A930A93A32F8FDD1A932A930A9313
:100B8600A22F8ADD0E94360728960895AA930E940E
:100B96002D07A985A03818F4A885A03408F04FC001
:100BA60050916802E52F5150E03009F448C0EF81BA
:100BB600E03009F444C0EF81E150EF83EF5F0E2F80
:100BC600F0E0A5E0B0E0AE1BBF0BFD010E941B07E5
:100BD6000E9420079F0110E0AE81A03459F40E94C4
:100BE60000071A93A02FA1DF0E9400070A93A12FE6
:100BF6009CDF0FC00E9400071A930A93EA85F0E073
:100C0600FA93EA93E0E0F0E0FA93EA93A0E0B0E02A
:100C160039DE1F5F33231AF4E12FF0E008C00150DC
:100C2600A12FBB27E02FF0E0AE1BBF0BFD01EE0F9F
:100C3600FF1F31962E0F3F1F011770F6B3CF0E948C
:100C460034072A960895AA930E942F0710916002EE
:100C5600E09168020E2FE09169023E2FE09170024A
:100C6600E09360020E947D06EE81EA93EE81EA93AC
:100C7600EE81EA93A0E48ADF109360020093680293
:100C8600309369020E94360727960895BA93AA936D
:100C9600B981A881109631F0FC81EB816A8161935C
:100CA6001197E9F7EB81FC81259608950E9494023D
:100CB6001A930A93A5E00E942606A4E6B0E00C94D7
:100CC6000507A02F01500E944203A4E6B0E00C9451
:100CD6000507A02F0F5F0E944203A4E6B0E00C9424
:100CE6000507C198EFEFEABBE881EBBB0E94B101B3
:100CF6000C94B501E1E0E0936802EFEFE09369023E
:100D06000895BA93AA93A881B9810E9429070895E4
:100D1600AE81AF5FAE83A150E0916802AE17089531
:100D26003A93AA850C942703A985BA85EA0FFB1F77
:100D3600E987FA870895E985FA85EA1BFB0BE987B7
:100D4600FA870895F0E0EA0FFB1F8F01A989BB27F8
:100D56000895F0E0AE1BBF0B9D01A989BB2708953E
:100D6600F0E0EA0FFB1FAF01E885E178E13808956E
:100D7600EA1BFB0B0F01DF01EB85FC85AE17BF07F6
:100D86000895E985FA85E015F10508950A93A22FDD
:100D96000C941E030A93A22FA2500E94E102AE2FCA
:100DA600EE81EA170895EB85FC85AE17BF07089517
:100DB600E985FA85EA17FB0708950A93A42F0E948E
:100DC6001E03AF81A23008950A93A42FAE5F0E943E
:100DD600E102AE2FEE81EA170895EA93A22F0E9450
:100DE600E102AE2FEE81EA170895EA93A42F0E943E
:100DF600E102AE2FEE81EA170895E985EA93E985C7
:100E0600EA930895109639F080ED97E00197F1F78F
:100E1600A8951197C9F70895F195E195F0400895C1
:100E2600EE230E2EEA2F19F0EE0F0A94E9F7089535
:100E3600EE0FFF1FEE0FFF1F0895F595E795F59549
:100E4600E7950895ED91FC911197089500240A16EF
:100E56000B0608955A934A933A932A931A930A9340
:100E660008955D814C813B812A811981088108950D
:00000001FF
